:10000000F0C100000C9448740C941D740C94F273AD
:100010000C94C7730C949C730C9471730C9446737A
:100020000C941B730C94422F0DC200000BC20000F5
:1000300009C200000C94AB6F05C2000003C20000AF
:1000400001C20000FFC10000FDC10000FBC10000B3
:10005000F9C10000F7C10000F5C100000C9413794C
:10006000F1C100000C94FA740C94D174EBC100003F
:10007000E9C10000E7C10000E5C10000E3C10000E4
:10008000E1C10000DFC10000DDC10000DBC10000F4
:10009000D9C10000D7C10000D5C100000C947A6E10
:1000A000D1C10000CFC10000CDC10000CBC1000014
:1000B000C9C10000C7C10000C5C10000C3C1000024
:1000C000C1C10000BFC10000BDC10000BBC1000034
:1000D000B9C10000B7C10000B5C10000B3C1000044
:1000E000B1C100002477277716771A7720775E77DB
:1000F0002B772F77357739773D77437747774B776E
:100100005E77517755775977084AD73B3BCE016EDA
:1001100084BCBFFDC12F3D6C74319ABD56833DDA5E
:100120003D00C77F11BED9E4BB4C3E916BAAAABE6D
:10013000000000803F05A84CCDB2D44EB93836A996
:10014000020C50B9918688083CA6AAAA2ABE0000D3
:1001500000803F0664EC1B3C04BC163E3BE5B93C0A
:10016000C93C37C29E5A3D660498083EEA69AAAA6D
:100170003E000000803F00407A10F35A00A0724E0B
:1001800018090010A5D4E80000E87648170000E43C
:100190000B54020000CA9A3B000000E1F505000084
:1001A00080969800000040420F000000A0860100E9
:1001B0000000102700000000E803000000006400B9
:1001C000000000000A000000000001000000000024
:1001D0002C76D888DC674F0823DFC1DFAE59E1B148
:1001E000B796E5E3E453C63AE651997696E8E6C257
:1001F0008426EB898C9B62ED407C6FFCEFBC9C9F5E
:1002000040F2BAA56FA5F490055A2AF75C936B6C7F
:10021000F9676DC11BFCE0E40D47FEF520E6B50073
:10022000D0ED902E0300943577050080841E0800E1
:1002300000204E0A000000C80C333333330F986E91
:1002400012831141EF8D2114893BE65516CFFEE64E
:10025000DB18D1844B381BF77C1D901DA4BBE42414
:10026000203284725E228100C9F124ECA1E53D2791
:100270000001040505030304050604050607010043
:10028000010003020100000102030405060707063E
:10029000050403020100070201000706050403022A
:1002A000010003020100000102030405060700012A
:1002B00002030405060702030405060607000021E1
:1002C00000240027002A002D003000330001010027
:1002D00000040107010A0100002200250028002B6C
:1002E000002E003100340002010000050108010B5E
:1002F00001000020002300260029002C002F0032DE
:1003000000000100000301060109010505050507BC
:100310000508080808020202020A0A080804040480
:1003200004010101010101010103030303030303AC
:1003300003040707070C0C0C0C0C0C0C0C0202023B
:100340000206060606060606060B0B0B0B0B0B0B2E
:100350000B010210202008081020401020408002CD
:1003600001020108040201010204081020408080FB
:10037000402010080402018004020180402010087F
:100380000402010804020101020408102040800157
:100390000204081020408000000A0B02090C0D0E18
:1003A0000807030401000000000000000000000036
:1003B000000000000000000000000000000000003D
:1003C00000000012111000000000000000000000FA
:1003D0000000000000000000000000000000E893A2
:1003E000D49311241FBECFEFD1E2DEBFCDBF00E01A
:1003F0000CBF11E1A0E0B2E0E8EAFAE301E00BBFD4
:1004000002C007900D92A230B107D9F727E1A2E010
:10041000B1E101C01D92A73EB207E1F711E0C0EFC4
:10042000D1E000E006C021970109802FFE010E9463
:10043000269BCF3ED10780E00807A9F70E945D798F
:100440000C94439DDDCD2F923F924F925F926F921D
:100450007F928F929F92AF92BF92CF92DF92EF9254
:10046000FF920F931F93CF93DF9300D01F92CDB7CE
:10047000DEB78091F0119091F111892B61F562E066
:1004800080E00E94767565E579E08BE397E10E9454
:10049000D07463E080E00E9476758091EE119091B7
:1004A000EF11892B31F46AE679E08BE397E10E9442
:1004B000D0748091EE119091EF11019731F46FE7B4
:1004C00079E08BE397E10E94D07481E090E0909313
:1004D000F1118093F0118091F0119091F111019739
:1004E00011F40E94CB2F8091F0119091F11102979D
:1004F00061F562E080E00E94767564E979E08BE363
:1005000097E10E94D07463E080E00E94767580914C
:10051000EC119091ED11892B31F469EA79E08BE3CC
:1005200097E10E94D0748091EC119091ED110197A8
:1005300031F46EEB79E08BE397E10E94D07483E0B5
:1005400090E09093F1118093F0118091F0119091CF
:10055000F111039711F40E94CB2F8091F01190912B
:10056000F1110497E1F58091EC119091ED11009754
:1005700029F480E090E0A0EAB0E406C0019761F4BD
:1005800083E393E3ABE4BFE380932C0290932D02CB
:10059000A0932E02B0932F0262E080E00E94767555
:1005A00063ED79E08BE397E10E94D07463E080E033
:1005B0000E9476758091EC119091ED11892B19F4C0
:1005C00068EE79E002C06DEF79E08BE397E10E947D
:1005D000D07485E090E09093F1118093F0118091B8
:1005E000F0119091F111059709F0A6C02091EC113E
:1005F0003091ED1160912C0270912D0280912E02AC
:1006000090912F02232B21F49B01AC010E94F198C1
:1006100060938C1470938D1480938E1490938F1428
:1006200063E08EE00E947675C0904202D090430253
:10063000E0904402F090450220E030E040E85FE3C3
:10064000C701B6010E947A97811128C0C0908C140E
:10065000D0908D14E0908E14F0908F1420E030E054
:1006600040E251E4C701B6010E94779A87FD05C0B8
:1006700043E050E0C701B6011FC06FE776E08BE3AF
:1006800097E10E94D07460918C1470918D148091C8
:100690008E1490918F1443E050E00EC0A701960194
:1006A00060918C1470918D1480918E1490918F14A0
:1006B0000E94809944E050E00E94D175C0902C02C5
:1006C000D0902D02E0902E02F0902F0220E030E03A
:1006D00048EC53E4C701B6010E94DF9720E030E008
:1006E00040E05FE30E94F1980E94E8996093E8116E
:1006F0007093E9118093EA119093EB1120E030E0C0
:1007000040E253E4C701B6010E94DF9720E030E0E9
:1007100040E05FE30E94F1980E94E8996093E41141
:100720007093E5118093E6119093E71186E090E0D5
:100730009093F1118093F0118091F0119091F1114B
:10074000069711F40E94CB2F8091F0119091F11136
:100750000797D1F462E080E00E94767562E17AE06A
:100760008BE397E10E94D07463E080E00E9476758D
:1007700067E27AE08BE397E10E94D07488E090E032
:100780009093F1118093F0118091F0119091F111FB
:10079000089709F07CC063E08DE00E947675809038
:1007A000420290904302A0904402B090450220E0A3
:1007B00030E040E85FE3C501B4010E947A97C09041
:1007C0002802D0902902E0902A02F0902B02811199
:1007D0002DC020E030E048EC52E4C701B6010E9491
:1007E000779A87FD05C043E050E0C701B60147C0D6
:1007F00024EF3DEF4FE151E4C701B6010E94779A23
:1008000087FD03C06FE776E002C06EE776E08BE31A
:1008100097E10E94D0746091280270912902809122
:100820002A0290912B0243E050E029C020E030E002
:1008300040E251E4C701B6010E94779A87FD05C0E6
:10084000A5019401C701B60116C06FE776E08BE3FE
:1008500097E10E94D074209142023091430240916E
:1008600044025091450260912802709129028091C2
:100870002A0290912B020E94809944E050E00E944D
:10088000D17589E090E09093F1118093F0118091FF
:10089000F0119091F111099721F40E94CB2F0E9441
:1008A000FA5A8091F0119091F1110A97B1F5609187
:1008B000FF137091001480910114909102140E9412
:1008C00080976B017C0120E030E040E05FE36091C5
:1008D00028027091290280912A0290912B020E9495
:1008E000DF9720E030E048EC53E40E94DF979B0163
:1008F000AC01C701B6010E94F0980E94E89960938C
:10090000DC117093DD118093DE119093DF118BE089
:1009100090E09093F1118093F0118091F0119091FB
:10092000F1110B97D1F462E080E00E9476756CE3E0
:100930007AE08BE397E10E94D07463E080E00E944C
:10094000767561E57AE08BE397E10E94D0748CE0E4
:1009500090E09093F1118093F0118091F0119091BB
:10096000F1110C9711F40E94CB2F8091F01190910E
:10097000F1110D97B1F48091EF139091F013A091C4
:10098000F113B091F2138093D8119093D911A093E1
:10099000DA11B093DB118EE090E09093F111809327
:1009A000F0118091F0119091F1110E97D1F462E065
:1009B00080E00E94767566E67AE08BE397E10E941C
:1009C000D07463E080E00E9476756BE77AE08BE399
:1009D00097E10E94D0748FE090E09093F1118093A2
:1009E000F0118091F0119091F1110F9711F40E9484
:1009F000CB2F8091F0119091F1114097B1F480913B
:100A0000FF1390910014A0910114B09102148093EF
:100A1000D4119093D511A093D611B093D71181E141
:100A200090E09093F1118093F0118091F0119091EA
:100A3000F1114197D1F462E080E00E94767560E99F
:100A40007AE08BE397E10E94D07463E080E00E943B
:100A5000767565EA7AE08BE397E10E94D07482E1D3
:100A600090E09093F1118093F0118091F0119091AA
:100A7000F111429709F0B3C00091EF131091F013F8
:100A80002091F1133091F2130093D0111093D111F2
:100A90002093D2113093D3118091D8119091D91114
:100AA000A091DA11B091DB11801B910BA20BB30B5B
:100AB000B7FF07C0B095A095909581959F4FAF4F18
:100AC000BF4F4091EE115091EF11092E000CAA0B6F
:100AD000BB0B0091E4111091E5112091E6113091CA
:100AE000E711BC01CD01452B29F4600F711F821F56
:100AF000931F04C0601B710B820B930B0E948097A5
:100B00002DEC3CEC4CEC5BE30E94DF976093C01152
:100B10007093C1118093C2119093C31163E08EE072
:100B20000E9476758090420290904302A090440209
:100B3000B090450220E030E040E85FE3C501B40139
:100B40000E947A97C090C011D090C111E090C2115C
:100B5000F090C31120E030E0A901811127C0C70146
:100B6000B6010E947A9787FF03C042E050E00CC0B4
:100B700020E030E040E251E4C701B6010E94779ADC
:100B800087FD05C043E050E0C701B60124C06FE710
:100B900076E08BE397E10E94D0746091C011709170
:100BA000C1118091C2119091C3110CC0C701B6014F
:100BB0000E947A97A501940187FF07C0C701B6017B
:100BC0000E94809943E050E006C0C701B6010E9430
:100BD000809944E050E00E94D1750E94CB2F809113
:100BE000F0119091F111439709F053C10091EE116A
:100BF0001091EF111A830983C090D811D090D911A8
:100C0000E090DA11F090DB11012B09F04EC08091D9
:100C1000D0119091D111A091D211B091D311A7010F
:100C20009601281B390B4A0B5B0BCA01B90157FF10
:100C300007C090958095709561957F4F8F4F9F4F1E
:100C40000E9480974B015C016091091770910A170F
:100C500080910B1790910C170E9480979B01AC011B
:100C60000E94F1989B01AC01C501B4010E947A97E2
:100C700087FFB1C063E080E00E9476756AEB7AE09E
:100C80008BE397E10E94D07463E089E00E9476755F
:100C90006091091770910A1780910B1790910C17AA
:100CA0000E9480979B01AC0177C009811A810130B5
:100CB000110509F090C08091D0119091D111A091AF
:100CC000D211B091D311A7019601281B390B4A0B01
:100CD0005B0BCA01B90157FF07C0909580957095CD
:100CE00061957F4F8F4F9F4F0E9480974B015C0112
:100CF0006091091770910A1780910B1790910C174A
:100D00000E9480979B01AC010E94F1982B013C014D
:100D10006091E4117091E5118091E6119091E711D5
:100D20000E9480979B01AC01C301B2010E94F1981F
:100D30009B01AC01C501B4010E947A9787FF4BC0AB
:100D400063E080E00E9476756AEB7AE08BE397E1DE
:100D50000E94D07463E089E00E9476756091091763
:100D600070910A1780910B1790910C170E94809731
:100D70009B01AC010E94F1986B017C016091E41130
:100D80007091E5118091E6119091E7110E94809792
:100D90009B01AC01C701B6010E94F1982DEC3CEC1F
:100DA0004CEC5BE30E94DF972091420230914302BA
:100DB00040914402509145020E94809943E050E0E6
:100DC0000E94D17560ED77E080E090E00E94CF78DE
:100DD00081E190E05AC08090EF139090F013A090C2
:100DE000F113B090F2138092D0119092D111A09291
:100DF000D211B092D311C701B601681979098A09D5
:100E00009B0997FF07C090958095709561957F4FDE
:100E10008F4F9F4F6093C8117093C9118093CA116F
:100E20009093CB110E94809720E030E040E250E4A4
:100E30000E94DF970E94E8996093C4117093C511D6
:100E40008093C6119093C7118C149D04AE04BF0407
:100E50002CF409811A81012B59F00FC0C814D90450
:100E6000EA04FB0454F409811A810130110529F4C4
:100E70001092A9111092A81106C081E090E0909301
:100E8000A9118093A81185E190E09093F1118093CE
:100E9000F0118091F0119091F111459709F051C036
:100EA00062E080E00E9476758091EE119091EF11E2
:100EB000892B19F46FEC7AE002C064EE7AE08BE3E0
:100EC00097E10E94D07463E080E00E94767569EF3C
:100ED0007AE08BE397E10E94D0742091EE1130917B
:100EE000EF118091D4119091D511A091D611B091AC
:100EF000D711232BC1F40091E8111091E911209131
:100F0000EA113091EB114091C4115091C5116091DB
:100F1000C6117091C711400F511F621F731F841BB0
:100F2000950BA60BB70B8093BC119093BD11A093AA
:100F3000BE11B093BF1186E190E09093F1118093C0
:100F4000F0118091F0119091F111469709F0C8C00D
:100F50008090DC119090DD11A090DE11B090DF1137
:100F6000C090BC11D090BD11E090BE11F090BF11A7
:100F7000C501B4016C197D098E099F0997FF07C04F
:100F800090958095709561957F4F8F4F9F4F0E94F0
:100F900080972AE037ED43E25BE30E94DF979B01F5
:100FA000AC010E94F1986093B8117093B9118093CD
:100FB000BA119093BB11C814D904EA04FB0454F489
:100FC00063E08AE00E9476756FEA76E08BE397E152
:100FD0000E94D07463E08BE00E947675C09042025C
:100FE000D0904302E0904402F090450220E030E0CF
:100FF00040E85FE3C701B6010E947A97811133C0D0
:10100000C090B811D090B911E090BA11F090BB1116
:1010100020E030E048EC52E4C701B6010E94779A24
:1010200087FD03C043E050E036C024EF3DEF4FE1C1
:1010300051E4C701B6010E94779A87FD03C06FE7AC
:1010400076E002C06EE776E08BE397E10E94D07411
:101050006091B8117091B9118091BA119091BB1142
:1010600043E050E035C0A70196016091B81170913E
:10107000B9118091BA119091BB110E9480996B01B6
:101080007C0120E030E040E251E40E94779A87FD45
:1010900005C044E050E0C701B6011AC06FE776E032
:1010A0008BE397E10E94D074209142023091430279
:1010B00040914402509145026091B8117091B9116C
:1010C0008091BA119091BB110E94809944E050E048
:1010D0000E94D17587E190E09093F1118093F01117
:1010E0008091F0119091F111479711F40E94CB2F4C
:1010F0008091F0119091F111489709F088C080918A
:10110000EE119091EF11009709F03FC04091BC1192
:101110005091BD116091BE117091BF118091C411A9
:101120009091C511A091C611B091C711480F591FD8
:101130006A1F7B1F4093CC115093CD116093CE1149
:101140007093CF118091E8119091E911A091EA116B
:10115000B091EB110091D4111091D5112091D611BD
:101160003091D711081B190B2A0B3B0B09501109A1
:101170002109310940175107620773070CF441C078
:10118000840F951FA61FB71F31C00197D1F580911D
:10119000BC119091BD11A091BE11B091BF114091B1
:1011A000C4115091C5116091C6117091C7118C0185
:1011B0009D01041B150B260B370B0093CC111093CC
:1011C000CD112093CE113093CF114091D411509175
:1011D000D5116091D6117091D7114950510961090B
:1011E000710984179507A607B7075CF00A96A11D39
:1011F000B11D8093D4119093D511A093D611B093C3
:10120000D71189E190E09093F1118093F0118091D2
:10121000F0119091F1114997F1F41092B7111092D9
:10122000B61162E080E00E9476756EE07BE08BE3B1
:1012300097E10E94D07463E080E00E94767563E2DB
:101240007BE08BE397E10E94D0748AE190E0909379
:10125000F1118093F0118091F0119091F1114A9762
:1012600009F0BBC06091B6117091B711072E000C48
:10127000880B990B0E9480972DEC3CEC4CEC5BE3C7
:101280000E94DF976093B2117093B3118093B411F1
:101290009093B51163E08DE00E94767580904202D4
:1012A00090904302A0904402B090450220E030E0CC
:1012B00040E85FE3C501B4010E947A97C090B21183
:1012C000D090B311E090B411F090B51181114BC0E2
:1012D00020E030E048EC52E4C701B6010E94779A62
:1012E00087FD05C043E050E0C701B6016EC020E0B5
:1012F00030E040E251E4C701B6010E94779A87FDD1
:1013000011C06FE776E08BE397E10E94D0746091A3
:10131000B2117091B3118091B4119091B51142E066
:1013200050E053C020E030E0A901C701B6010E949F
:101330007A97811107C068E37BE08BE397E10E9415
:10134000D07445C06EE776E08BE397E10E94D074DD
:101350006091B2117091B3118091B4119091B51157
:1013600043E050E032C020E030E040E251E4C70109
:10137000B6010E94779A87FD05C0A5019401C701B7
:10138000B6011FC020E030E0A901C701B6010E94EC
:101390007A97882381F26FE776E08BE397E10E94EA
:1013A000D074209142023091430240914402509106
:1013B00045026091B2117091B3118091B411909176
:1013C000B5110E94809944E050E00E94D1758BE1F4
:1013D00090E09093F1118093F0118091F011909131
:1013E000F1114B9711F40E94CB2F8091F011909145
:1013F000F1114C9709F061C02091A8113091A91109
:101400004091D0115091D1116091D2117091D311AE
:101410008091B6119091B7112115310539F42091C1
:10142000EE113091EF11232B59F01CC02130310502
:10143000C9F42091EE113091EF112130310591F472
:10144000092E000CAA0BBB0B8A019B01081B190B70
:101450002A0B3B0BD901C80189F44150510961099C
:10146000710919C0092E000CAA0BBB0B840F951F24
:10147000A61FB71F0097A105B10549F08093AE11D3
:101480009093AF11A093B011B093B1110CC04F5F06
:101490005F4F6F4F7F4F4093AE115093AF116093EA
:1014A000B0117093B1111092B7111092B6118DE175
:1014B00090E09093F1118093F0118091F011909150
:1014C000F1114D97F1F41092B7111092B61162E03C
:1014D00080E00E94767560E47BE08BE397E10E94F8
:1014E000D07463E080E00E94767565E57BE08BE375
:1014F00097E10E94D0748EE190E09093F111809377
:10150000F0118091F0119091F1114E9709F0BBC04C
:101510006091B6117091B711072E000C880B990BD2
:101520000E9480972AE037ED43E25BE30E94DF9759
:101530006093B2117093B3118093B4119093B5116D
:1015400063E08DE00E9476758090420290904302A5
:10155000A0904402B090450220E030E040E85FE314
:10156000C501B4010E947A97C090B211D090B31116
:10157000E090B411F090B51181114BC020E030E043
:1015800048EC52E4C701B6010E94779A87FD05C076
:1015900043E050E0C701B6016EC020E030E040E219
:1015A00051E4C701B6010E94779A87FD11C06FE729
:1015B00076E08BE397E10E94D0746091B211709154
:1015C000B3118091B4119091B51142E050E053C035
:1015D00020E030E0A901C701B6010E947A9781118D
:1015E00007C068E37BE08BE397E10E94D07445C0BD
:1015F0006EE776E08BE397E10E94D0746091B211C0
:101600007091B3118091B4119091B51143E050E005
:1016100032C020E030E040E251E4C701B6010E9450
:10162000779A87FD05C0A5019401C701B6011FC0C7
:1016300020E030E0A901C701B6010E947A97882313
:1016400081F26FE776E08BE397E10E94D0742091FE
:101650004202309143024091440250914502609110
:10166000B2117091B3118091B4119091B5110E9493
:10167000809944E050E00E94D1758FE190E0909312
:10168000F1118093F0118091F0119091F1114F9729
:1016900011F40E94CB2F8091F0119091F11180975D
:1016A00009F057C08091EE119091EF11009769F504
:1016B0004091B6115091B711052E000C660B770BB7
:1016C0008091CC119091CD11A091CE11B091CF11FC
:1016D000480F591F6A1F7B1F4093AA115093AB11EB
:1016E0006093AC117093AD118091D4119091D5118C
:1016F000A091D611B091D71184179507A607B70707
:1017000014F10196A11DB11D16C00197E1F440919D
:10171000B6115091B711052E000C660B770B809116
:10172000CC119091CD11A091CE11B091CF11841B0D
:10173000950BA60BB70B8093AA119093AB11A093B6
:10174000AC11B093AD1181E290E09093F1118093D0
:10175000F0118091F0119091F1118197B1F5809184
:10176000EE119091EF118130910509F58091B6113C
:101770009091B711892BE9F462E080E00E947675C0
:101780006AE67BE08BE397E10E94D07463E080E03F
:101790000E9476756FE77BE08BE397E10E94D0743F
:1017A0001092B7111092B61182E290E00AC0892B14
:1017B00031F08091B6119091B711892B31F086E20A
:1017C00090E09093F1118093F0118091F01190913D
:1017D000F111829709F0E6C063E08CE00E94767513
:1017E0006FE776E08BE397E10E94D0748091CC1193
:1017F0009091CD11A091CE11B091CF110091DC113B
:101800001091DD112091DE113091DF11AC01BD018D
:10181000401B510B620B730B8091B6119091B71165
:10182000092E000CAA0BBB0B8A019B01080F191F84
:101830002A1F3B1FC901B8010E9480972AE037ED9B
:1018400043E25BE30E94DF979B01AC010E94F198A9
:101850006093B2117093B3118093B4119093B5114A
:1018600063E08DE00E947675809042029090430282
:10187000A0904402B090450220E030E040E85FE3F1
:10188000C501B4010E947A972091B6113091B71129
:1018900081114CC0232B39F468E37BE08BE397E1A3
:1018A0000E94D07479C0C090B211D090B311E09072
:1018B000B411F090B51120E030E048EC52E4C701DB
:1018C000B6010E94779A87FD05C043E050E0C7014A
:1018D000B60160C020E030E040E251E4C701B6014B
:1018E0000E94779A87FD11C06FE776E08BE397E15E
:1018F0000E94D0746091B2117091B3118091B411B3
:101900009091B51142E050E045C06EE776E08BE380
:1019100097E10E94D0746091B2117091B3118091DF
:10192000B4119091B51143E050E034C0232B09F479
:10193000B3CFC090B211D090B311E090B411F09039
:10194000B51120E030E040E251E4C701B6010E9449
:10195000779A87FD05C0A5019401C701B60116C09D
:101960006FE776E08BE397E10E94D074209142020A
:101970003091430240914402509145026091B2116E
:101980007091B3118091B4119091B5110E9480991A
:1019900044E050E00E94D17583E290E09093F11111
:1019A0008093F0118091F0119091F111839711F4CF
:1019B0000E94CB2F8091F0119091F111849729F51D
:1019C0008091B6119091B71118161906C4F4092E1A
:1019D000000CAA0BBB0B4091CC115091CD11609122
:1019E000CE117091CF11840F951FA61FB71F809342
:1019F000AA119093AB11A093AC11B093AD1186E2F4
:101A000090E09093F1118093F0118091F0119091FA
:101A1000F1118697D1F462E080E00E94767564E966
:101A20007BE08BE397E10E94D07463E080E00E944A
:101A3000767569EA7BE08BE397E10E94D07487E2D8
:101A400090E09093F1118093F0118091F0119091BA
:101A5000F111879709F047C063E088E00E9476752E
:101A6000C0904202D0904302E0904402F0904502C0
:101A700020E030E040E85FE3C701B6010E947A97BA
:101A8000811113C0609163027091640280916502BC
:101A9000909166020E9480972AE037ED43E25BE373
:101AA0000E94DF9742E050E016C06091630270919F
:101AB000640280916502909166020E9480972AE0FC
:101AC00037ED43E25BE30E94DF97A70196010E9496
:101AD000809943E050E00E94D17588E290E09093B5
:101AE000F1118093F0118091F0119091F11188978C
:101AF00011F40E94CB2F8091F0119091F1118997F0
:101B0000D1F58091630290916402A0916502B09139
:101B1000660240915F025091600260916102709193
:101B20006202481759076A077B075CF00A97A10908
:101B3000B10980935F0290936002A0936102B09319
:101B4000620262E080E00E9476756EEB7BE08BE3E0
:101B500097E10E94D07463E080E00E94767569EAA4
:101B60007BE08BE397E10E94D0748AE290E090934F
:101B7000F1118093F0118091F0119091F1118A97F9
:101B800009F047C063E088E00E947675C090420289
:101B9000D0904302E0904402F090450220E030E013
:101BA00040E85FE3C701B6010E947A97811113C034
:101BB00060915F0270916002809161029091620277
:101BC0000E9480972AE037ED43E25BE30E94DF97B3
:101BD00042E050E016C060915F0270916002809117
:101BE0006102909162020E9480972AE037ED43E201
:101BF0005BE30E94DF97A70196010E94809943E072
:101C000050E00E94D1758BE290E09093F1118093A7
:101C1000F0118091F0119091F1118B9711F40E94C5
:101C2000CB2F8091F0119091F1118C97B1F50E941A
:101C3000925E64EF71E080E090E00E94CF780E94B5
:101C40004E5F0E94C54B0E943A5E0E94444B62E088
:101C500080E00E94767563ED7BE08BE397E10E9464
:101C6000D07463E080E00E94767568EE7BE08BE3E1
:101C700097E10E94D07463E085E00E9476758FE161
:101C800097E10E94BD7563E08FE00E94767585E262
:101C900097E10E94BD750E94CB2F8091F011909129
:101CA000F1118D97D1F462E080E00E9476756DEFBE
:101CB0007BE08BE397E10E94D07463E080E00E94B8
:101CC00076756BED77E08BE397E10E94D0748EE23E
:101CD00090E09093F1118093F0118091F011909128
:101CE000F1118E9711F00C94ED16809131119091B5
:101CF0003211A0913311B091341180932D11909332
:101D00002E11A0932F11B093301180913911909121
:101D10003A11A0913B11B0913C1180931D11909309
:101D20001E11A0931F11B0932011109299111092BF
:101D300098110E94574293E0292E312C01E010E0C7
:101D400080910F1490911014049709F0ECC78091C2
:101D500098119091991106970CF0E5C78091F011B8
:101D60009091F1118E970E9708F0DDC788E00E94E0
:101D70000D78009719F4109246020CC0019751F4A7
:101D800080914602811106C062E370E080E090E03D
:101D90000E94CF7888E00E940D78019709F0EBC48B
:101DA000809146028111E7C48091F0119091F11168
:101DB0008E329105B1F581E08093460260E085E0C6
:101DC0000E94767562E17CE08BE397E10E94D0741B
:101DD00061E085E00E94767562E17CE08BE397E14B
:101DE0000E94D07462E080E00E9476756BE17CE036
:101DF0008BE397E10E94D07463E080E00E947675E7
:101E000060E37CE08BE397E10E94D0740E94AC41D8
:101E10000E9401412FE230E03093F1112093F01144
:101E200023C38F32910509F02AC381E080934602D3
:101E300063E080E00E9476756AE57CE08BE397E1E1
:101E40000E94D074C0906A14D0906B14E0906C140F
:101E5000F0906D148090630290906402A0906502EF
:101E6000B090660240907614509077146090781489
:101E7000709079148091621490916314A09164140D
:101E8000B0916514BC01CD016C197D098E099F09C3
:101E900097FF07C090958095709561957F4F8F4F04
:101EA0009F4FA50194010E949398CA01B9010E9415
:101EB000809724EA30E74DEF5FE30E94F198698351
:101EC0007A838B839C8380916E1490916F14A09180
:101ED0007014B0917114A7019601281B390B4A0B9D
:101EE0005B0BCA01B90157FF07C0909580957095AB
:101EF00061957F4F8F4F9F4FA50194010E9493984A
:101F0000CA01B9010E9480979B01AC0169817A8165
:101F10008B819C810E94F1986B017C0180917214ED
:101F200090917314A0917414B0917514BC01CD01FB
:101F3000641975098609970997FF07C090958095E0
:101F4000709561957F4F8F4F9F4FA50194010E941F
:101F50009398CA01B9010E9480979B01AC01C70107
:101F6000B6010E94F1986B017C0180917A149091E6
:101F70007B14A0917C14B0917D14A3019201281BC5
:101F8000390B4A0B5B0BCA01B90157FF07C090958B
:101F90008095709561957F4F8F4F9F4FA50194015C
:101FA0000E949398CA01B9010E9480979B01AC01DD
:101FB000C701B6010E94F1986B017C0120E030E07E
:101FC000A9010E94779A20E030E040E05FE387FDBE
:101FD00005C0C701B6010E94F19804C0C701B6014F
:101FE0000E94F0980E94E89970938B1460938A1471
:101FF00063E08CE00E9476756DE776E08BE397E115
:102000000E94D07463E08CE00E94767580918A14FF
:1020100090918B140E94A6768091981190919911BD
:10202000892B09F009C24091A4115091A51160912A
:10203000A6117091A711C0906A14D0906B14E09013
:102040006C14F0906D144A015B018C189D08AE0869
:10205000BF088091630290916402A0916502B091E3
:10206000660288169906AA06BB066CF0481B590B37
:102070006A0B7B0B4093A4115093A5116093A6119A
:102080007093A711E5C0181419041A041B044CF42A
:10209000C092A411D092A511E092A611F092A711BE
:1020A000D7C04C155D056E057F0509F0D1C01093B2
:1020B0009711009396114091A0115091A111609138
:1020C000A2117091A311C0907614D0907714E09073
:1020D0007814F09079144A015B018C189D08AE08C1
:1020E000BF0888169906AA06BB066CF0481B590B58
:1020F0006A0B7B0B4093A0115093A1116093A21126
:102100007093A31159C0181419041A041B044CF439
:10211000C092A011D092A111E092A211F092A3114D
:102120004BC04C155D056E057F0509F045C042E0CA
:1021300050E0509397114093961140919C1150910B
:102140009D1160919E1170919F11C0907A14D09052
:102150007B14E0907C14F0907D144A015B018C1894
:102160009D08AE08BF0888169906AA06BB066CF043
:10217000481B590B6A0B7B0B40939C1150939D118C
:1021800060939E1170939F1117C0181419041A04BC
:102190001B044CF4C0929C11D0929D11E0929E11B0
:1021A000F0929F1109C04C155D056E057F0521F465
:1021B000109399110093981166E176E08BE496E113
:1021C0000E94737464E176E08BE496E10E9473747C
:1021D0006FE67CE08BE496E10E94D074609163022C
:1021E0007091640280916502909166020E94D77698
:1021F0006DE77CE08BE496E10E94D0746091A411BD
:102200007091A5118091A6119091A7110E94D77687
:102210006AE87CE08BE496E10E94D0746091A011A2
:102220007091A1118091A2119091A3110E94D77673
:1022300066E97CE08BE496E10E94D07460919C1189
:1022400070919D1180919E1190919F110E94D7765F
:102250008091981190919911009709F0B6C0E09083
:102260008A14F0908B148090630290906402A09086
:102270006502B09066028091A4119091A511A09181
:10228000A611B091A71140906A1450906B14609001
:102290006C1470906D14BC01CD0164197509860928
:1022A000970997FF07C090958095709561957F4F2E
:1022B0008F4F9F4FA50194010E949398CA01B901C5
:1022C0000E94809724EA30E74DEF5FE30E94F19887
:1022D0002B013C018091A0119091A111A091A2111C
:1022E000B091A31120917614309177144091781415
:1022F00050917914BC01CD01621B730B840B950BBB
:1023000097FF07C090958095709561957F4F8F4F8F
:102310009F4FA50194010E949398CA01B9010E94A0
:1023200080979B01AC01C301B2010E94F1982B017F
:102330003C0180919C1190919D11A0919E11B091B2
:102340009F1120917A1430917B1440917C1450910C
:102350007D14BC01CD01621B730B840B950B97FFA1
:1023600007C090958095709561957F4F8F4F9F4FD7
:10237000A50194010E949398CA01B9010E94809717
:102380009B01AC01C301B2010E94F1984B015C01B9
:1023900020E030E0A9010E94779A20E030E040E0A0
:1023A0005FE387FD05C0C501B4010E94F19804C038
:1023B000C501B4010E94F0980E94E899E61AF70A54
:1023C000F0928914E09288140BC0019749F480912F
:1023D0008A1490918B140197909389148093881498
:1023E00063E085E00E9476756DE776E08BE397E128
:1023F0000E94D07463E085E00E9476758091881415
:10240000909189140E94A6760E942D400E94A43FBC
:102410000E94AF3B0E9437510E94584D0E94A94C28
:102420000E94AC418091981190919911892B09F0EB
:10243000F3CD0E940141F0CD82E090E0909399119C
:10244000809398110E94574220E330E03093F111BD
:102450002093F01162E080E00E94767562EA7CE0F1
:102460008BE397E10E94D07463E080E00E94767570
:1024700065E47CE08BE397E10E94D0747CC18033FB
:10248000910509F093C08091981190919911823033
:10249000910521F08430910509F06DC121E0209370
:1024A0004602029709F067C08091941190919511AE
:1024B00062E0039709F44CC080E00E94767567EBF8
:1024C0007CE08BE397E10E94D07463E080E00E949F
:1024D00076756AE57CE08BE397E10E94D074809189
:1024E0008A1490918B14909389148093881463E0DC
:1024F0008CE00E9476756DE776E08BE397E10E94B1
:10250000D07463E08CE00E94767580918A1490917B
:102510008B140E94A67680918A1490918B149093CC
:1025200089148093881463E085E00E9476756DE7D6
:1025300076E08BE397E10E94D07463E085E00E942F
:10254000767580918814909189140E94A67613C0A4
:1025500080E00E9476756CE676E08BE397E10E945E
:10256000D07463E080E00E9476756CEC7CE08BE3D5
:1025700097E10E94D0740E9401410E942D400E9468
:10258000A43F0E94AF3B0E9437510E94584D0E94C9
:10259000A94C0E94AC4141E350E05093F1114093AB
:1025A000F0113092991120929811E5C0CA9709F064
:1025B000E2C08091981190919911059709F0DBC0C4
:1025C00081E080934602809198119091991105972E
:1025D00009F0CBC0809190119091911118161906B5
:1025E0000CF04BC04C01092E000CAA08BB08C0908F
:1025F0006302D0906402E0906502F0906602409120
:102600005F02509160026091610270916202260146
:102610003701440E551E661E771E20918C11309195
:102620008D11481459046A047B046CF42C0D3D1D73
:1026300030938D1120938C118C199D0990939111D9
:10264000809390111AC0820F931F481559056A058F
:102650007B055CF4841B950B90938D1180938C11FA
:10266000509391114093901108C090938D118093D5
:102670008C11109291111092901180919211909161
:102680009311181619060CF04BC04C01092E000CC2
:10269000AA08BB08C0900D17D0900E17E0900F1736
:1026A000F09010174091091750910A1760910B177D
:1026B00070910C1726013701440E551E661E771EB9
:1026C00020918E1130918F11481459046A047B04B3
:1026D0006CF42C0D3D1D30938F1120938E118C19AD
:1026E0009D0990939311809392111AC0820F931FAA
:1026F000481559056A057B055CF4841B950B90937E
:102700008F1180938E11509393114093921108C0B2
:1027100090938F1180938E111092931110929211B9
:102720000E9457420E9401410E942D400E94A43FF6
:102730000E94AF3B0E9437510E94584D0E94A94C05
:102740000E94AC418091921190919311892B09F0D4
:102750003ACF8091901190919111892B09F033CF4C
:1027600030929911209298112ECF81E390E09093AE
:10277000F1118093F0118091F0119091F111C197B6
:1027800011F562E080E00E94767561EE7CE08BE3FB
:1027900097E10E94D07463E080E00E947675E0913A
:1027A0009411F0919511EE0FFF1FE95AFB4F6081D4
:1027B00071818BE397E10E94D07422E330E0309383
:1027C000F1112093F0118091F0119091F111C297C5
:1027D00011F40E94CB2F8091F0119091F111C397C9
:1027E00029F58091941190919511009739F447EE55
:1027F00053E05093101440930F141EC00297E1F45D
:1028000063E080E00E94767566EF7CE08BE397E101
:102810000E94D07460ED77E080E090E00E94CF7875
:1028200081E390E09093F1118093F0118091F01189
:102830009091F111C39731F5809194119091951178
:10284000039701F562E080E00E9476756CEC7CE015
:102850008BE397E10E94D07463E080E00E9476757C
:102860006BE07DE08BE397E10E94D07420E330E0E1
:102870003093F1112093F01142E050E05093991100
:10288000409398118091F0119091F111C39761F5E7
:102890008091941190919511019731F58091A81133
:1028A0009091A91162E0892B31F480E00E94767545
:1028B00060E27DE005C080E00E94767565E37DE022
:1028C0008BE397E10E94D07463E080E00E9476750C
:1028D0006AE47DE08BE397E10E94D07484E390E0AA
:1028E0009093F1118093F0118091F0119091F1117A
:1028F000C49709F0CCC080919411909195110197E3
:1029000009F0C5C0809192119091931197FF04C076
:1029100010929311109292116091921170919311F3
:10292000072E000C880B990B0E9480972DEC3CEC35
:102930004CEC5BE30E94DF976093B2117093B3118C
:102940008093B4119093B51163E08AE00E9476758C
:102950008090420290904302A0904402B0904502C1
:1029600020E030E040E85FE3C501B4010E947A97BF
:10297000C090B211D090B311E090B411F090B511A5
:1029800081114BC020E030E048EC52E4C701B601B1
:102990000E94779A87FD05C043E050E0C701B60169
:1029A0006EC020E030E040E251E4C701B6010E9471
:1029B000779A87FD11C06FE776E08BE397E10E947D
:1029C000D0746091B2117091B3118091B411909153
:1029D000B51142E050E053C020E030E0A901C7014A
:1029E000B6010E947A97811107C068E37BE08BE310
:1029F00097E10E94D07445C06EE776E08BE397E1E3
:102A00000E94D0746091B2117091B3118091B41191
:102A10009091B51143E050E032C020E030E040E258
:102A200051E4C701B6010E94779A87FD05C0A50150
:102A30009401C701B6011FC020E030E0A901C70121
:102A4000B6010E947A97882381F26FE776E08BE3E4
:102A500097E10E94D074209142023091430240914C
:102A60004402509145026091B2117091B31180916E
:102A7000B4119091B5110E94809944E050E00E94F9
:102A8000D17585E390E09093F1118093F0118091DE
:102A9000F0119091F111C59741F4809194119091AA
:102AA0009511019711F40E94CB2F8091F011909114
:102AB000F111C69701F580919411909195110197AC
:102AC000D1F462E080E00E9476756FE57DE08BE3F3
:102AD00097E10E94D07463E080E00E94767564E71D
:102AE0007DE08BE397E10E94D07487E390E09093C0
:102AF000F1118093F0118091F0119091F111C7972D
:102B000009F0CCC08091941190919511019709F032
:102B1000C5C0809190119091911197FF04C01092BF
:102B20009111109290116091901170919111072E56
:102B3000000C880B990B0E9480972AE037ED43E246
:102B40005BE30E94DF976093B2117093B31180939F
:102B5000B4119093B51163E08AE00E94767580907D
:102B6000420290904302A0904402B090450220E0BF
:102B700030E040E85FE3C501B4010E947A97C0905D
:102B8000B211D090B311E090B411F090B511811151
:102B90004BC020E030E048EC52E4C701B6010E948F
:102BA000779A87FD05C043E050E0C701B6016EC0CB
:102BB00020E030E040E251E4C701B6010E94779A7C
:102BC00087FD11C06FE776E08BE397E10E94D07438
:102BD0006091B2117091B3118091B4119091B511BF
:102BE00042E050E053C020E030E0A901C701B60147
:102BF0000E947A97811107C068E37BE08BE397E13D
:102C00000E94D07445C06EE776E08BE397E10E94A6
:102C1000D0746091B2117091B3118091B411909100
:102C2000B51143E050E032C020E030E040E251E432
:102C3000C701B6010E94779A87FD05C0A5019401DE
:102C4000C701B6011FC020E030E0A901C701B601ED
:102C50000E947A97882381F26FE776E08BE397E111
:102C60000E94D0742091420230914302409144026C
:102C7000509145026091B2117091B3118091B411DD
:102C80009091B5110E94809944E050E00E94D17566
:102C900088E390E09093F1118093F0118091F0110E
:102CA0009091F111C89711F40E94CB2F8091F011EF
:102CB0009091F111C99709F043C8809190119091BA
:102CC0009111181619063CF0809192119091931170
:102CD000181619060CF562E080E00E94767569E826
:102CE0007DE08BE397E10E94D07463E080E00E9476
:102CF00076756BE07DE08BE397E10E94D0748AE308
:102D000090E09093F1118093F01185E090E0909322
:102D100099118093981114C881E390E09093F11178
:102D20008093F0110DC880912D1190912E11A091DA
:102D30002F11B0913011F89480935B1790935C172A
:102D4000A0935D17B0935E17789480912D119091A8
:102D50002E11A0912F11B0913011809331119093C9
:102D60003211A0933311B0933411809325119093B5
:102D70002611A0932711B093281180911D119091D5
:102D80001E11A0911F11B0912011F8948093671724
:102D900090936817A0936917B0936A1778948091FD
:102DA0001D1190911E11A0911F11B09120118093BF
:102DB000391190933A11A0933B11B0933C11809339
:102DC000351190933611A0933711B093381187EED7
:102DD00093E09093101480930F140F900F900F9026
:102DE0000F90DF91CF911F910F91FF90EF90DF90A7
:102DF000CF90BF90AF909F908F907F906F905F909B
:102E00004F903F902F9008952F923F924F925F9254
:102E10006F927F928F929F92AF92BF92CF92DF92EA
:102E2000EF92FF920F931F93CF93DF93CDB7DEB74F
:102E300060970FB6F894DEBF0FBECDBF80919E1392
:102E400090919F13892BD1F462E080E00E94767507
:102E500062EF7DE08BE397E10E94D07463E080E055
:102E60000E94767567E07EE08BE397E10E94D07464
:102E700081E090E090939F1380939E1380919E1326
:102E800090919F13019709F09BC063E08BE00E9433
:102E9000767520E030E040E85FE360914202709197
:102EA000430280914402909145020E947A978111D9
:102EB00047C0C0903A02D0903B02E0903C02F090B4
:102EC0003D0220E030E048EC52E4C701B6010E9428
:102ED000779A87FD05C063E08BE00E94767525C078
:102EE00020E030E048EC52E4C701B6010E947A9736
:102EF00087FF11C020E030E040E251E4C701B60195
:102F00000E94779A87FD07C063E08BE00E94767588
:102F10006FE776E006C063E08BE00E9476756EE7AF
:102F200076E08BE397E10E94D07460913A02709151
:102F30003B0280913C0290913D0243E050E038C05A
:102F400023E333E34BEC51E460913A0270913B028E
:102F500080913C0290913D020E94809920E030E0F7
:102F600040E251E40E94779A63E087FD04C08BE061
:102F70000E94767509C08BE00E9476756FE776E057
:102F80008BE397E10E94D07420914202309143027A
:102F9000409144025091450260913A0270913B0287
:102FA00080913C0290913D020E94809944E050E063
:102FB0000E94D17582E090E090939F1380939E13BE
:102FC00080919E1390919F13029721F40E947E2777
:102FD0000E94FA5A80919E1390919F13039731F5A6
:102FE000C090FF13D0900014E0900114F0900214F0
:102FF000C0929A13D0929B13E0929C13F0929D136F
:10300000C701B6010E9480976093FA117093FB117B
:103010008093FC119093FD11D092F711C092F6119C
:1030200084E090E090939F1380939E1380919E1371
:1030300090919F130497D1F462E080E00E9476752E
:1030400062E177E08BE397E10E94D07463E080E077
:103050000E94767563ED76E08BE397E10E94D07471
:1030600085E090E090939F1380939E1380919E1330
:1030700090919F13059791F48091FF139091001404
:10308000A0910114B091021480939613909397131A
:10309000A0939813B09399130E947E2780919E135A
:1030A00090919F130697E9F560919613709197138D
:1030B00080919813909199130E9480976B017C01E5
:1030C00060919A1370919B1380919C1390919D1322
:1030D0000E94809720E030E048EC53E40E94F19891
:1030E0009B01AC01C701B6010E947A9787FF13C00C
:1030F00063E080E00E9476756CE17EE08BE397E10F
:103100000E94D07460ED77E080E090E00E94CF787C
:1031100084E090E002C087E090E090939F1380935A
:103120009E1380919E1390919F130797D1F462E0B4
:1031300080E00E94767561E37EE08BE397E10E9478
:10314000D07463E080E00E94767566E47EE08BE3F5
:1031500097E10E94D07488E090E090939F13809351
:103160009E1380919E1390919F130897D9F463E06A
:1031700083E00E9476756EE776E08BE397E10E942C
:10318000D07463E083E00E9476758091380290915C
:10319000390201960E94A67689E090E090939F13F1
:1031A00080939E1380919E1390919F13099711F421
:1031B0000E947E2780919E1390919F130A97B1F5EC
:1031C00062E080E00E9476756BE57EE08BE397E13C
:1031D0000E94D07463E080E00E9476756CE676E031
:1031E0008BE397E10E94D07463E080E00E947675E3
:1031F0008091041290910512892B31F460E77EE0F2
:103200008BE397E10E94D074809104129091051293
:10321000019731F465E87EE08BE397E10E94D0747A
:103220008BE090E090939F1380939E1380919E1368
:1032300090919F130B9711F40E947E2780919E130B
:1032400090919F130C9729F540919A1350919B13DD
:1032500060919C1370919D13E6EAF2E18EEC92E18D
:1032600041935193619371938E179F07C9F7809192
:1032700038029091390290930312809302121092B7
:103280003902109238028DE090E090939F13809362
:103290009E1380919E1390919F130D9781F520911D
:1032A00038023091390280910212909103128217F4
:1032B00093072CF162E080E00E9476756AE97EE077
:1032C0008BE397E10E94D07463E080E00E94767502
:1032D0006FEA7EE08BE397E10E94D07462E085E0C4
:1032E0000E947675809138029091390201960E9471
:1032F000A6768EE090E090939F1380939E1380912A
:103300009E1390919F130E9709F09AC080913802F6
:103310009091390220910212309103122817390737
:103320000CF48EC0880F991F880F991FFC01EA5575
:10333000FD4E80919A1390919B13A0919C13B09194
:103340009D130081118122813381BC01CD01601B5D
:10335000710B820B930B0E9480979B01AC010E9422
:10336000F1982AE037ED43E25BE30E94DF979B018F
:10337000AC0160913A0270913B0280913C029091C5
:103380003D020E94F0986B017C016093FE117093E6
:10339000FF11809300129093011220E030E040E88A
:1033A0005FE36091420270914302809144029091E8
:1033B00045020E947A97811123C020E030E040E26C
:1033C00051E4C701B6010E94779A63E087FD04C00B
:1033D0008DE00E94767509C08DE00E9476756FE7DA
:1033E00076E08BE397E10E94D0746091FE117091BA
:1033F000FF11809100129091011243E050E018C03B
:1034000063E08DE00E947675209142023091430284
:1034100040914402509145026091FE117091FF115C
:1034200080910012909101120E94809944E050E036
:103430000E94D1758FE090E090939F1380939E132C
:1034400080919E1390919F130F9711F40E947E27F5
:1034500080919E1390919F13409709F0E4C00091D2
:103460003802109139021A8309834091EF13509169
:10347000F0136091F1137091F213101611060CF015
:103480007AC02091041230910512C80101972115CC
:10349000310589F4FC01EE0FFF1FEE0FFF1FEA5B01
:1034A000FC4E008111812281338104171507260704
:1034B0003707A4F035C02130310591F5FC01EE0F3E
:1034C000FF1FEE0FFF1FEA5BFC4E0081118122817E
:1034D0003381401751076207730714F563E080E0FA
:1034E0000E94767564EC7EE08BE397E10E94D074D5
:1034F0008091041290910512892B19F469ED7EE0F8
:1035000002C062EE7EE08BE397E10E94D07460ED32
:1035100077E080E090E00E94CF788DE090E07FC07F
:10352000880F991F880F991FFC01EA5BFC4E0081F0
:103530001181228133810417150726073707D9F433
:10354000FC01EA55FD4E0081118122813381809179
:10355000FF1390910014A0910114B0910214081768
:1035600019072A073B0739F463E080E00E9476756B
:103570006BEE7EE0C8CF89819A81880F991F880FF2
:10358000991FFC01EA5BFC4E408351836283738385
:10359000FC01EA55FD4E40919A1350919B136091A6
:1035A0009C1370919D1380819181A281B3818A01C6
:1035B0009B01081B190B2A0B3B0BC901B8010E9488
:1035C00080976B017C012091FA113091FB114091A1
:1035D000FC115091FD110E94779A181674F4C09254
:1035E000FA11D092FB11E092FC11F092FD110981C9
:1035F0001A811093F9110093F81109811A810F5F54
:103600001F4F10933902009338028091021290915B
:103610000312801791070CF080CF81E190E0909326
:103620009F1380939E1380919E1390919F134197B7
:10363000D1F462E080E00E94767564E97BE08BE380
:1036400097E10E94D07463E080E00E94767569EA99
:103650007BE08BE397E10E94D07482E190E090934D
:103660009F1380939E1380919E1390919F13429776
:1036700009F03FC063E088E00E947675C090420286
:10368000D0904302E0904402F090450220E030E008
:1036900040E85FE3C701B6010E947A972AE037ED60
:1036A00043E25BE381110DC06091340270913502F9
:1036B00080913602909137020E94DF9742E050E0FD
:1036C00010C0609134027091350280913602909161
:1036D00037020E94DF97A70196010E94809943E07C
:1036E00050E00E94D17583E190E090939F13809306
:1036F0009E1380919E1390919F13439711F40E9403
:103700007E2780919E1390919F13449709F040C0AB
:10371000C0903402D0903502E0903602F09037022B
:10372000A7019601609130027091310280913202BE
:10373000909133020E94779A87FD10C020E030E01C
:1037400040E251E4C701B6010E94F0986093300254
:1037500070933102809332029093330262E080E0F2
:103760000E9476756EEB7BE08BE397E10E94D0744C
:1037700063E080E00E94767569EA7BE08BE397E185
:103780000E94D07485E190E090939F1380939E13E4
:1037900080919E1390919F13459709F03FC063E07D
:1037A00088E00E947675C0904202D0904302E0907B
:1037B0004402F090450220E030E040E85FE3C701BA
:1037C000B6010E947A972AE037ED43E25BE381116C
:1037D0000DC060913002709131028091320290915F
:1037E00033020E94DF9742E050E010C06091300247
:1037F0007091310280913202909133020E94DF97E2
:10380000A70196010E94809943E050E00E94D17583
:1038100086E190E090939F1380939E1380919E1376
:1038200090919F13469711F40E947E2780919E13DA
:1038300090919F134797B1F50E94925E64EF71E0FB
:1038400080E090E00E94CF780E944E5F0E94C54BBE
:103850000E943A5E0E94444B62E080E00E947675CE
:1038600063ED7BE08BE397E10E94D07463E080E03E
:103870000E94767568EE7BE08BE397E10E94D0743E
:1038800063E085E00E9476758FE197E10E94BD7547
:1038900063E08FE00E94767585E297E10E94BD7536
:1038A0000E947E2780919E1390919F134897D1F498
:1038B00062E080E00E94767560E07FE08BE397E154
:1038C0000E94D07463E080E00E9476756BED77E033
:1038D0008BE397E10E94D07489E190E090939F136D
:1038E00080939E1380919E1390919F13499711F09E
:1038F0000C9405278091311190913211A0913311D0
:10390000B091341180932D1190932E11A0932F110B
:10391000B09330118091391190913A11A0913B11DF
:10392000B0913C1180931D1190931E11A0931F1113
:10393000B093201102EA12E11C870B8702E413E125
:1039400026E532E13E832D8346EF52E15A874987CF
:10395000212C312CE0900212F0900312E214F304B7
:10396000CCF440909A1350909B1360909C137090ED
:103970009D138090300290903102A0903202B0905E
:1039800033028091F4119091F51106E012E11A8250
:10399000198200C621143104D1F44091A61250912D
:1039A000A7126091A8127091A91280919A13909118
:1039B0009B13A0919C13B0919D13481759076A0758
:1039C0007B072CF48BED9FE0A9E4B0E423C0809149
:1039D000041290910512009731F52114310409F079
:1039E00043C04091A6125091A7126091A812709105
:1039F000A91280919A1390919B13A0919C13B0915E
:103A00009D13481759076A077B0771F58BED9FE0F7
:103A1000A9ECBFE38093A2149093A314A093A414E1
:103A2000B093A514BDC1019709F075C021143104EC
:103A300009F044C04091A6125091A7126091A812BB
:103A40007091A91280919A1390919B13A0919C134D
:103A5000B0919D13481759076A077B0779F584EEE3
:103A60009BECA6E9B0E4D6CFD8014D915D916D9164
:103A70007C91139714968D919D910D90BC91A02DE2
:103A8000481759076A077B0709F045C0EB85FC8595
:103A9000408151816281738184819581A681B78142
:103AA000481759076A077B07B4F51092A2141092C1
:103AB000A3141092A4141092A51472C1D8014D91B0
:103AC0005D916D917C91139714968D919D910D90C0
:103AD000BC91A02D481759076A077B07E1F4EB85D5
:103AE000FC85408151816281738184819581A681A9
:103AF000B781481759076A077B076CF42BED3FE045
:103B000049EC50E42093A2143093A3144093A414DE
:103B10005093A51445C1D801CD90DD90ED90FC9057
:103B2000139714964D905D906D907C901797C414E8
:103B3000D504E604F70481F4EB85FC8540815181CE
:103B40006281738184819581A681B78184179507ED
:103B5000A607B7070CF436CFAB85BC858D909D903A
:103B6000AD90BC90139714962D913D914D915C9121
:103B7000179729833A834B835C8382169306A406A6
:103B8000B50669F44C145D046E047F040CF43ECF5A
:103B9000C414D504E604F7040CF461CFEBC029810A
:103BA0003A814B815C8182169306A406B5060CF01F
:103BB00041C04C145D046E047F040CF093C0C70137
:103BC000B60164197509860997090E9480972DEC42
:103BD0003CEC4CEC5BE30E94DF976B017C01C50180
:103BE000B40129813A814B815C81621B730B840B88
:103BF000950B0E9480972AE037ED43E25BE30E9439
:103C0000DF979B01AC01C701B6010E9480990E9419
:103C100055996B017C0120E030E0A9010E94779A60
:103C2000181624F0F7FAF094F7F8F09420E030E05A
:103C3000A9014BC089819A81AB81BC818815990506
:103C4000AA05BB050CF096C04C145D046E047F04FD
:103C50000CF08AC0C501B40129813A814B815C8195
:103C6000621B730B840B950B0E9480972AE037ED43
:103C700043E25BE30E94DF974B015C01C701B601A1
:103C800064197509860997090E9480972DEC3CEC10
:103C90004CEC5BE30E94DF979B01AC01C501B401D2
:103CA0000E9480990E9455996B017C0120E030E0D0
:103CB000A9010E94779A181624F0F7FAF094F7F801
:103CC000F0942BED3FE049EC5FE3C701B6010E94A1
:103CD000F1986093A2147093A3148093A41490930A
:103CE000A5145EC0C414D504E604F7040CF042C069
:103CF000C501B40129813A814B815C81621B730B40
:103D0000840B950B0E9480972AE037ED43E25BE33A
:103D10000E94DF974B015C01C701B6016419750968
:103D2000860997090E9480972DEC3CEC4CEC5BE3F4
:103D30000E94DF979B01AC01C501B4010E948099EC
:103D40000E9455996B017C0120E030E0A9010E949E
:103D5000779A181624F0F7FAF094F7F8F09424EE16
:103D60003BEC46E950E4B1CFC414D504E604F704B3
:103D70000CF4D5C763E080E00E94767565E17FE0D2
:103D80008BE397E10E94D07468E873E180E090E0F3
:103D90000E94CF7847EE53E05093101440930F14D5
:103DA000809102129091031228163906D1F4AB8546
:103DB000BC851496CD90DD90ED90FC9017974091C6
:103DC0009A1350919B1360919C1370919D13C4168C
:103DD000D506E606F7062CF48BED9FE0A9E4B0E4E7
:103DE00022C020910412309105122115310521F5D0
:103DF0002816390609F042C0EB85FC8544815581BF
:103E00006681778180919A1390919B13A0919C1366
:103E1000B0919D13481759076A077B0779F584EE1F
:103E20009BECA6E9B0E480939E1490939F14A0931A
:103E3000A014B093A114BDC12130310509F077C0A1
:103E40002816390609F049C0AB85BC8514964D91FA
:103E50005D916D917C91179780919A1390919B132E
:103E6000A0919C13B0919D13481759076A077B07CF
:103E7000A1F58BED9FE0A9ECBFE3D5CFF80144811C
:103E800055816681778180859185A285B3854817A4
:103E900059076A077B0709F04AC0AB85BC851496B1
:103EA0004D915D916D917C91179718968D919D9193
:103EB0000D90BC91A02D84179507A607B707BCF5F8
:103EC0002BED3FE049EC50E420939E1430939F1477
:103ED0004093A0145093A1146CC1D80114964D9135
:103EE0005D916D917C91179718968D919D910D9094
:103EF000BC91A02D481759076A077B07C1F4EB85D1
:103F0000FC85448155816681778180859185A28574
:103F1000B38584179507A607B7074CF410929E1433
:103F200010929F141092A0141092A11442C1D801B3
:103F300014968D909D90AD90BC9017971896CD904B
:103F4000DD90ED90FC901B978C149D04AE04BF0493
:103F500081F4EB85FC85448155816681778180857C
:103F60009185A285B385481759076A077B070CF42A
:103F700033CFAB85BC8514964D905D906D907C9051
:103F8000179718962D913D914D915C911B97298320
:103F90003A834B835C83421653066406750669F4C4
:103FA000C814D904EA04FB040CF439CF8C149D0422
:103FB000AE04BF040CF45DCFE6C029813A814B8189
:103FC0005C8142165306640675060CF040C0C814A6
:103FD000D904EA04FB040CF090C0C701B6016819CB
:103FE00079098A099B090E9480972DEC3CEC4CECE6
:103FF0005BE30E94DF976B017C0169817A818B8191
:104000009C8164197509860997090E9480972AE0A6
:1040100037ED43E25BE30E94DF979B01AC01C701F0
:10402000B6010E9480990E9455996B017C0120E0A5
:1040300030E0A9010E94779A181624F0F7FAF0945C
:10404000F7F8F0942BED3FE049E450E449C02981B2
:104050003A814B815C8124153505460557050CF0E6
:1040600092C0C814D904EA04FB040CF086C069812C
:104070007A818B819C8164197509860997090E9450
:1040800080972AE037ED43E25BE30E94DF972B0144
:104090003C01C701B601681979098A099B090E9488
:1040A00080972DEC3CEC4CEC5BE30E94DF979B018E
:1040B000AC01C301B2010E9480990E9455996B0125
:1040C0007C0120E030E0A9010E94779A181624F0C4
:1040D000F7FAF094F7F8F09424EE3BEC46E950E45C
:1040E000C701B6010E94F19860939E1470939F14CB
:1040F0008093A0149093A1145CC08C149D04AE0412
:10410000BF040CF040C069817A818B819C81641965
:104110007509860997090E9480972AE037ED43E2E6
:104120005BE30E94DF972B013C01C701B6016819D0
:1041300079098A099B090E9480972DEC3CEC4CEC94
:104140005BE30E94DF979B01AC01C301B2010E94B7
:1041500080990E9455996B017C0120E030E0A90113
:104160000E94779A181624F0F7FAF094F7F8F09472
:104170002BED3FE049EC5FE3B3CF8C149D04AE041C
:10418000BF040CF409C663E080E00E9476756AE221
:104190007FE08BE397E10E94D07468E873E180E0F0
:1041A00090E00E94CF7847EE53E050931014409374
:1041B0000F14C090A214D090A314E090A414F09017
:1041C000A51420E030E0A901C701B6010E947A974A
:1041D000811110C02BED3FE049EC50E460919E143A
:1041E00070919F148091A0149091A1140E947A97CD
:1041F000882339F12BED3FE049EC50E4C701B601CB
:104200000E947A9781110FC020E030E0A9016091EF
:104210009E1470919F148091A0149091A1140E94FB
:104220007A97882371F020919E1430919F144091C9
:10423000A0145091A114C701B6010E947A97811170
:1042400016C063E080E00E9476756FE37FE08BE349
:1042500097E10E94D07468E873E180E090E00E94EA
:10426000CF7887EE93E09093101480930F14809092
:10427000A2149090A314A090A414B090A514A5012A
:10428000940160919E1470919F148091A01490915C
:10429000A1140E94F0986B017C0120E030E040E026
:1042A0005FE30E94DF97A50194010E94F19860935B
:1042B0009A1470939B1480939C1490939D1420E007
:1042C00030E0A901C701B6010E94779A18160CF4D4
:1042D0004DC02BED3FE049E450ECC701B6010E9410
:1042E0007A9781110DC08BED9FE0A9E4B0E4809333
:1042F000961490939714A0939814B09399146BC04C
:104300002BED3FE049E450ECC701B6010E947A97DB
:1043100087FF15C0F7FAF094F7F8F094A70196011B
:104320006BED7FE089EC90E40E94F0986093961426
:104330007093971480939814909399144CC02BED1C
:104340003FE049E450ECC701B6010E94779A181685
:1043500064F5F7FAF094F7F8F094C0929614D092BE
:104360009714E0929814F092991435C02BED3FE029
:1043700049E450E4C701B6010E947A97882309F402
:10438000B2CF2BED3FE049E450E4C701B6010E94F3
:10439000779A18161CF22BED3FE049E450E4C70170
:1043A000B6010E947A9787FDD8CF63E080E00E9433
:1043B000767564E57FE08BE397E10E94D07468E84E
:1043C00073E180E090E00E94CF78A7EEB3E0B09375
:1043D0001014A0930F14C0909614D0909714E090EE
:1043E0009814F0909914A70196016BED7FE089E491
:1043F00090E40E94F09820E030E040E05FE30E940B
:10440000DF974B015C010E947D9969837A838B83DE
:104410009C83409030025090310260903202709044
:104420003302C501B4010E94829A4B015C0120E075
:1044300030E040E05FE3C701B6010E94DF970E94D1
:10444000CD9A6B017C01A5019401C301B2010E94C8
:10445000DF972AE037ED43E25BE30E94DF97A70195
:1044600096010E9480996B017C01A30192016981F0
:104470007A818B819C810E94DF972AE037ED43E2AD
:104480005BE30E94DF979B01AC01C701B6010E946C
:10449000F1986B017C0180909A1490909B14A090ED
:1044A0009C14B0909D14C501B4010E947D9969834C
:1044B0007A838B839C83C501B4010E94829A2B016D
:1044C0003C01F80164817581868197810E94809703
:1044D0004B015C01A3019201C701B6010E94DF9765
:1044E0002DEC3CEC4CEC5BE30E9480999B01AC0111
:1044F000C501B4010E94F1980E94E899A985BA8586
:104500006D937D938D939D93BA87A987EB85FC85E9
:1045100064817581868197810E9480974B015C013F
:1045200029813A814B815C81C701B6010E94DF97E6
:104530002AE037ED43E25BE30E9480999B01AC01E6
:10454000C501B4010E94F0980E94E899AD81BE8136
:104550006D937D938D939D93BE83AD832091F611D2
:104560003091F7116901330FEE08FF086C157D05D6
:104570008E059F0524F47093F7116093F611BFEF39
:104580002B1A3B0AEB85FC853496FC87EB870C5F86
:104590001F4FE0C929813A81E216F306F4F0C30106
:1045A000B2010E948097A50194010E94F19820E039
:1045B00030E040E251E40E94F1980E94E899D8016D
:1045C0006D937D938D939D938D01E981FA81319651
:1045D000FA83E98380E090E0DDCF9093F51180933A
:1045E000F411C301B2010E948097A50194010E94B9
:1045F000F19820E030E040E251E40E94F1980E94FE
:10460000E899709395146093941480910F1490918D
:104610001014039709F028C38091F4119091F511BB
:1046200004970CF021C380919E1390919F1349979A
:10463000039708F019C388E00E940D78009719F4D9
:10464000109246020CC0019751F4809146028111EC
:1046500006C062E370E080E090E00E94CF7888E0DE
:104660000E940D78019789F6809146028111CDCF85
:1046700080919E1390919F1389319105B1F5F1E0DE
:10468000F093460260E085E00E94767562E17CE08E
:104690008BE397E10E94D07461E085E00E9476751B
:1046A00062E17CE08BE397E10E94D07462E080E0FD
:1046B0000E94767569E67FE08BE397E10E94D074F3
:1046C00063E080E00E94767560E37CE08BE397E135
:1046D0000E94D0740E9406610E94D05F0AE110E03F
:1046E00010939F1300939E13D4C18A31910509F052
:1046F000DBC111E01093460263E080E00E94767512
:104700006AE57CE08BE397E10E94D0746091941499
:1047100070919514CB01770FAA0BBB0BE091F811A8
:10472000F091F911EE0FFF1FEE0FFF1FEA5AFD4E39
:10473000C080D180E280F380BC01CD016C197D097D
:104740008E099F0997FF07C0909580957095619598
:104750007F4F8F4F9F4F0E9480972091340230915E
:10476000350240913602509137020E94809922E52D
:1047700038EB4EEB5FE30E94F1986B017C0120E087
:1047800030E0A9010E94779A20E030E040E05FE34A
:1047900087FD05C0C701B6010E94F19804C0C7019A
:1047A000B6010E94F0980E94E89970939314609368
:1047B000921463E08CE00E9476756DE776E08BE3FF
:1047C00097E10E94D07463E08CE00E94767580913E
:1047D0009214909193140E94A6760091F411109176
:1047E000F511188B0F87012B09F043C100910212BC
:1047F000109103121E870D87C0903402D0903502AD
:10480000E0903602F09037020091F8111091F91102
:104810001A87098706E512E11C870B8746E0242EDC
:1048200042E1342E00E010E02D853E85201731074F
:104830000CF472C0D1014D905D906D907C90EB8531
:10484000FC8581909190A190B190FC87EB87A301AA
:104850009201281939094A095B0929833A834B8354
:104860005C83CA01B9010E9480976D837E838F8328
:104870009887A70196010E94779A87FD11C0C3010E
:10488000B2010E948097A70196010E94F0980E94B1
:10489000E899D1016D937D938D939C93139719C0E3
:1048A000A70196016D817E818F8198850E947A97FC
:1048B00087FF0FC029813A814B815C811216130654
:1048C0001406150634F4D1018D929D92AD92BC92DE
:1048D0001397EF85F889EF2BA9F429853A850217FC
:1048E0001307A1F491E080E0D1014D915D916D91AC
:1048F0007C91481559056A057B0509F090E09F8772
:10490000888B04C0E1E0F0E0F88BEF870F5F1F4F6A
:10491000F4E02F0E311C88CF0F8518891093F51104
:104920000093F411A0909214B0909314012B09F00D
:104930007EC089859A85880F991F880F991FFC0171
:10494000EA5FFD4EDC01AA5ABD4E40815181628171
:1049500073818D919D910D90BC91A02D8A019B0139
:10496000081B190B2A0B3B0BC901B8010E94809749
:10497000A70196010E9480996B017C0120E030E044
:10498000A9010E94779A1816E4F422E538EB4EEB61
:104990005FE3C701B6010E94F19820E030E0A90171
:1049A0000E94779A87FD30C022E538EB4EEB5FE33B
:1049B000C701B6010E94F19820E030E040E05FE3DB
:1049C00017C0A701960162E578EB8EEB9FE30E948A
:1049D000F0982B013C0120E030E0A9010E94779A79
:1049E00087FD09C020E030E040E05FE3C301B20191
:1049F0000E94F19817C0A701960162E578EB8EEB53
:104A00009FE30E94F09808C022E538EB4EEB5FE38D
:104A1000C701B6010E94F19820E030E040E05FE37A
:104A20000E94F0980E94E899A61AB70A03C011E004
:104A3000A11AB108B0929114A092901463E085E09D
:104A40000E9476756DE776E08BE397E10E94D07463
:104A500063E085E00E9476758091901490919114A6
:104A60000E94A6760E94B1610E9406610E94D05FFA
:104A7000B4CE2BE130E030939F1320939E1362E07D
:104A800080E00E94767562EA7CE08BE397E10E9409
:104A9000D07463E080E00E94767565E47CE08BE38F
:104AA00097E10E94D074B1CD4B9709F0AECD8091C3
:104AB000F4119091F511029709F0A7CD31E03093F0
:104AC000460262E080E00E9476756EE77FE08BE34D
:104AD00097E10E94D07463E080E00E9476756AE5F9
:104AE0007CE08BE397E10E94D07460919414709104
:104AF0009514CB01770FAA0BBB0BE091F811F09145
:104B0000F911EE0FFF1FEE0FFF1FEA5AFD4EC08096
:104B1000D180E280F380BC01CD016C197D098E0942
:104B20009F0997FF07C090958095709561957F4F7D
:104B30008F4F9F4F0E948097209134023091350211
:104B400040913602509137020E94809922E538EB5D
:104B50004EEB5FE30E94F1986B017C0120E030E0B6
:104B6000A9010E94779A20E030E040E05FE387FDF2
:104B700005C0C701B6010E94F19804C0C701B60183
:104B80000E94F0980E94E899709393146093921495
:104B900063E08CE00E9476756DE776E08BE397E149
:104BA0000E94D07463E08CE00E947675809192142C
:104BB000909193140E94A6768091921490919314F0
:104BC000909391148093901463E085E00E94767531
:104BD0006DE776E08BE397E10E94D07463E085E0B7
:104BE0000E94767580919014909191140E94A676FF
:104BF000409102125091031226EA32E1A6E4B3E199
:104C000066EF72E106E012E180E090E04817590794
:104C1000C4F0F901C190D190E190F1909F01F801A9
:104C2000C192D192E192F1928F01CD90DD90ED9001
:104C3000FD90FB01C192D192E192F192BF010196E8
:104C4000E5CF03E010E01093F5110093F4110E94FA
:104C5000B1610E9406610E94D05F2CE130E0309388
:104C60009F1320939E13D1CC80912D1190912E11E2
:104C7000A0912F11B0913011F89480935B1790930D
:104C80005C17A0935D17B0935E17789480912D11F7
:104C900090912E11A0912F11B0913011809331116C
:104CA00090933211A0933311B09334118093251156
:104CB00090932611A0932711B093281180911D1174
:104CC00090911E11A0911F11B0912011F894809322
:104CD000671790936817A0936917B0936A17789431
:104CE00080911D1190911E11A0911F11B091201162
:104CF0008093391190933A11A0933B11B0933C11DA
:104D00008093351190933611A0933711B0933811D9
:104D100087EE93E09093101480930F1476C0C70130
:104D2000B60164197509860997090E9480972DECD0
:104D30003CEC4CEC5BE30E94DF976B017C01C5010E
:104D4000B40129813A814B815C81621B730B840B16
:104D5000950B0E9480972AE037ED43E25BE30E94C7
:104D6000DF979B01AC01C701B6010E9480990E94A8
:104D700055996B017C0120E030E0A9010E94779AEF
:104D8000181624F0F7FAF094F7F8F0942BED3FE0C2
:104D900049E450E40C94651EC701B601681979090D
:104DA0008A099B090E9480972DEC3CEC4CEC5BE35C
:104DB0000E94DF976B017C0169817A818B819C81E4
:104DC00064197509860997090E9480972AE037EDD2
:104DD00043E25BE30E94DF979B01AC01C701B60190
:104DE0000E9480990E9455996B017C0120E030E07F
:104DF000A9010E94779A181624F0F7FAF094F7F8B0
:104E0000F09420E030E0A9016BC960960FB6F894E9
:104E1000DEBF0FBECDBFDF91CF911F910F91FF90ED
:104E2000EF90DF90CF90BF90AF909F908F907F904A
:104E30006F905F904F903F902F900895DC01ED911F
:104E4000FD918081ED91FD919081ED91FD916C91AD
:104E500063708E2309F064609F2309F06860EBE3C0
:104E6000F7E2E60FF11D659565956D936D917D9166
:104E70008D919D91099423C01AC012C016C010C014
:104E80001EC009C014C013C006C019C009C00DC09F
:104E900007C00DC014C062507040804090400BC0ED
:104EA000615070408040904006C06E5F01C06F5FEF
:104EB0007F4F8F4F9F4F9E938E937E936E93089557
:104EC0008091B1149091B214B9CF8091AF149091A8
:104ED000B014B4CF8091AD149091AE14AFCF809147
:104EE000AB149091AC14AACF8091A9149091AA14FC
:104EF000A5CF8091A7149091A814A0CF8F929F92D4
:104F0000AF92BF92CF92DF92EF92FF9280910F14F7
:104F1000909110149C012D7F2130310521F0873EA6
:104F200093400CF4A6C781E30E940D7890938B11F7
:104F300080938A110197D1F480918911811116C053
:104F40000E940779C0908511D0908611E09087115A
:104F5000F0908811DC01CB018C199D09AE09BF09C5
:104F6000893C9105A105B10508F062C70E94077947
:104F7000C0908511D0908611E0908711F090881133
:104F80009B01AC012C193D094E095F0969017A01A9
:104F90002093811130938211409383115093841197
:104FA00039E2C316D104E104F1040CF44BC380913F
:104FB0008A1190918B11892B09F054C2809189112B
:104FC000813009F04FC280910D1490910E14019719
:104FD000A9F480910B1490910C1401968C319105D9
:104FE00029F090930C1480930B1404C010920C14AD
:104FF00010920B1410920E1410920D1480910D1437
:1050000090910E140397B9F48091091490910A14A9
:1050100001968A30910529F090930A14809309141F
:1050200004C010920A141092091482E090E0909348
:105030000E1480930D1480910D1490910E14059709
:10504000B9F480910714909108140196833091056A
:1050500029F0909308148093071404C01092081448
:105060001092071484E090E090930E1480930D1436
:1050700080910D1490910E14079709F045C049E5F1
:10508000C41642E0D406E104F104F4F58090031460
:1050900090900414A0900514B0900614E0910B14A5
:1050A000F0910C14EE0FFF1FEE0FFF1FE357FD4FA3
:1050B00020E030E040E05FE3608171818281938194
:1050C0000E94DF972FE632E143E05BE30E94F09815
:1050D000A50194010E94779A87FD10C02FE632E166
:1050E00043E05BE3C501B4010E94F19860930314AF
:1050F00070930414809305149093061486E090E056
:1051000090930E1480930D1480910D1490910E14B1
:105110000797F9F459E5C51652E0D506E104F10404
:10512000C4F0E0917F11F0918011EE0FFF1FEE0FA0
:10513000FF1FED58FE4E8091FF1390910014A09137
:105140000114B091021480839183A283B3830E94DF
:10515000005580910D1490910E144F97B9F48091E1
:10516000BC139091BD1301968430910529F0909362
:10517000BD138093BC1304C01092BD131092BC13D6
:105180008EE190E090930E1480930D1480910D1495
:1051900090910E14849741F5C090B813D090B91334
:1051A000E090BA13F090BB132DEC3CEC4CEC5DE3BB
:1051B000C701B6010E947A9787FF10C02FE632E13F
:1051C00043E05BE3C701B6010E94F1986093B81316
:1051D0007093B9138093BA139093BB1383E290E05A
:1051E00090930E1480930D1480910F1490911014CD
:1051F000883E23E092075CF001968D3E33E09307F2
:1052000011F488EE93E09093101480930F14809122
:105210009E1390919F130297F1F5809181119091C7
:105220008211A0918311B091841189359240A1051A
:10523000B1058CF520E030E040E85FE36091420288
:105240007091430280914402909145020E947A97A6
:10525000811105C02FE632E143E85AE304C020E2A1
:1052600036E746E25BE360913A0270913B0280913F
:105270003C0290913D020E94F19860933A02709333
:105280003B0280933C0290933D0281E090E090933A
:105290009F1380939E1380919E1390919F13099763
:1052A000A1F4809138029091390201968E319105D6
:1052B00011F481E090E0909339028093380288E005
:1052C00090E090939F1380939E1380919E139091F2
:1052D0009F130B97B9F480910412909105120196D7
:1052E0008230910529F0909305128093041204C036
:1052F00010920512109204128AE090E090939F138E
:1053000080939E1380919E1390919F130F97A9F500
:105310008091811190918211A0918311B09184119B
:1053200089359240A105B10544F5E0913802F0912C
:105330003902EE0FFF1FEE0FFF1FEA55FD4E808171
:105340009181A281B38140919A1350919B136091F6
:105350009C1370919D1384179507A607B7076CF4EB
:105360000196A11DB11D80839183A283B3838EE03A
:1053700090E090939F1380939E1380919E13909141
:105380009F13439749F58091811190918211A091CB
:105390008311B091841189359240A105B105E4F4DF
:1053A00020E030E040E850E4609134027091350232
:1053B00080913602909137020E94F19860933402F6
:1053C00070933502809336029093370282E190E029
:1053D00090939F1380939E1380919E1390919F139F
:1053E000469709F03FC08091811190918211A09160
:1053F0008311B091841189359240A105B10594F5CE
:10540000C0903002D0903102E0903202F09033022E
:1054100020E030E040EA50E46091340270913502BF
:1054200080913602909137020E94F098A701960170
:105430000E94779A181684F420E030E040E850E4A7
:10544000C701B6010E94F198609330027093310257
:10545000809332029093330285E190E090939F1302
:1054600080939E1380918A1190918B11019709F07E
:1054700084C080919E1390919F13029709F07DC084
:105480008091811190918211A0918311B09184112A
:10549000893542E09407A105B1050CF46EC0893846
:1054A0009341A105B10594F520E030E040E85FE3C9
:1054B00060914202709143028091440290914502B2
:1054C0000E947A97811105C02DEC3CEC4CEC5DE319
:1054D00004C029E43CE042E85EE360913A02709146
:1054E0003B0280913C0290913D020E94F1986093B2
:1054F0003A0270933B0280933C0290933D0266E433
:1055000070E080E090E00E94CF782BC020E030E097
:1055100040E85FE36091420270914302809144024F
:10552000909145020E947A97811105C020E030E0F9
:1055300040E85FE304C02CE53FE842E250E46091BC
:105540003A0270913B0280913C0290913D020E9490
:10555000F19860933A0270933B0280933C029093DF
:105560003D0266EE70E080E090E00E94CF7881E03E
:1055700090E090939F1380939E1380918A11909155
:105580008B11019709F05EC080919E1390919F133B
:105590000F9709F057C0C0908111D0908211E09010
:1055A0008311F090841189E5C81682E0D806E104E1
:1055B000F1040CF447C0E0913802F0913902EE0F8B
:1055C000FF1FEE0FFF1FEA55FD4E80819181A281E2
:1055D000B381AC01BD014C5E5F4F6F4F7F4F809038
:1055E0009A1390909B13A0909C13B0909D13481514
:1055F00059056A057B0534F529E8C21623E1D20670
:10560000E104F1045CF4408351836283738366E4B4
:1056100070E080E090E00E94CF7808C088539F4FF0
:10562000AF4FBF4F80839183A283B38366EE70E058
:1056300080E090E00E94CF788EE090E090939F13FE
:1056400080939E1380918A118093891183E30E9435
:105650000D7890936E1180936D110197D1F4809124
:105660006C11811116C00E940779C0906811D0900A
:105670006911E0906A11F0906B11DC01CB018C197B
:105680009D09AE09BF09893C9105A105B10508F046
:10569000DAC30E940779C0906811D0906911E09038
:1056A0006A11F0906B119B01AC012C193D094E0958
:1056B0005F0969017A012093641130936511409369
:1056C00066115093671139E2C316D104E104F10465
:1056D0000CF4CEC280916D1190916E11009709F07B
:1056E000DFC180916C11813009F06DC280910D1481
:1056F00090910E14019781F480910B1490910C14E9
:10570000019710F48BE190E090930C1480930B14AC
:1057100010920E1410920D1480910D1490910E148D
:10572000039791F48091091490910A14019710F451
:1057300089E090E090930A148093091482E090E04D
:1057400090930E1480930D1480910D1490910E146B
:10575000079709F041C08090031490900414A09022
:105760000514B0900614E0910B14F0910C14EE0F98
:10577000FF1FEE0FFF1FE357FD4F80819181A28134
:10578000B381BC01CD01905820E030E040E05FE300
:105790000E94DF972FE632E143E05BE30E94F1983D
:1057A000A50194010E947A97181684F02FE632E141
:1057B00043E05BE3C501B4010E94F09860930314D9
:1057C00070930414809305149093061486E090E07F
:1057D00090930E1480930D1480910D1490910E14DB
:1057E0004F9791F48091BC139091BD13019710F4E1
:1057F00083E090E09093BD138093BC138EE190E022
:1058000090930E1480930D1480910D1490910E14AA
:10581000849739F58090B8139090B913A090BA137B
:10582000B090BB1320E030E0A901C501B4010E9493
:10583000779A181684F42FE632E143E05BE3C50162
:10584000B4010E94F0986093B8137093B9138093D9
:10585000BA139093BB1383E290E090930E1480935D
:105860000D1480910F1490911014883E33E093072B
:105870005CF00197873E43E0940711F48CEE93E0CF
:105880009093101480930F1480919E1390919F1306
:10589000029709F044C059E5C51652E0D506E10467
:1058A000F104ECF580903A0290903B02A0903C020B
:1058B000B0903D022AE037ED43E25CE3C501B4015C
:1058C0000E94779A18165CF520E030E040E85FE32C
:1058D000609142027091430280914402909145028E
:1058E0000E947A97811105C02FE632E143E85AE31E
:1058F00004C020E236E746E25BE3C501B4010E9442
:10590000F09860933A0270933B0280933C0290932C
:105910003D0281E090E090939F1380939E138091CD
:105920009E1390919F13099791F480913802909162
:105930003902019711F48DE190E090933902809340
:10594000380288E090E090939F1380939E1380919B
:105950009E1390919F130B9791F480910412909154
:105960000512019710F481E090E090930512809366
:1059700004128AE090E090939F1380939E1380918D
:105980009E1390919F130F9711F539E5C31632E0DE
:10599000D306E104F104DCF4E0913802F09139021D
:1059A000EE0FFF1FEE0FFF1FEA55FD4E8081918124
:1059B000A281B3810197A109B10980839183A28358
:1059C000B3838EE090E090939F1380939E13809119
:1059D0009E1390919F13439779F549E5C41642E0D1
:1059E000D406E104F10444F580903402909035022D
:1059F000A0903602B090370220E030E040E551E45C
:105A0000C501B4010E94779A181684F420E030E0B2
:105A100040E850E4C501B4010E94F098609334025C
:105A200070933502809336029093370282E190E0C2
:105A300090939F1380939E1380919E1390919F1338
:105A4000469709F0C0C059E5C51652E0D506E104F5
:105A5000F1040CF0B8C0C0903002D0903102E09058
:105A60003202F090330220E030E040EA50E4C70117
:105A7000B6010E94779A181684F420E030E040E8DE
:105A800050E4C701B6010E94F09860933002709311
:105A90003102809332029093330285E190E08FC00F
:105AA000019709F0E5C080919E1390919F13029792
:105AB00009F090C089E5C81682E0D806E104F10437
:105AC0000CF488C080903A0290903B02A0903C0277
:105AD000B0903D0227E139ED4EEC5DE3C501B40124
